{
  "address": "0xB5b854CE3f20368Ccb76946ED474555233871D83",
  "abi": [
    {
      "inputs": [],
      "stateMutability": "nonpayable",
      "type": "constructor"
    },
    {
      "inputs": [
        {
          "internalType": "address",
          "name": "owner",
          "type": "address"
        }
      ],
      "name": "OwnableInvalidOwner",
      "type": "error"
    },
    {
      "inputs": [
        {
          "internalType": "address",
          "name": "account",
          "type": "address"
        }
      ],
      "name": "OwnableUnauthorizedAccount",
      "type": "error"
    },
    {
      "anonymous": false,
      "inputs": [
        {
          "indexed": true,
          "internalType": "address",
          "name": "previousOwner",
          "type": "address"
        },
        {
          "indexed": true,
          "internalType": "address",
          "name": "newOwner",
          "type": "address"
        }
      ],
      "name": "OwnershipTransferred",
      "type": "event"
    },
    {
      "inputs": [],
      "name": "CommonGroundInfo",
      "outputs": [
        {
          "internalType": "uint256",
          "name": "",
          "type": "uint256"
        },
        {
          "internalType": "uint256",
          "name": "",
          "type": "uint256"
        }
      ],
      "stateMutability": "view",
      "type": "function"
    },
    {
      "inputs": [
        {
          "internalType": "address",
          "name": "evaluator",
          "type": "address"
        }
      ],
      "name": "addEvaluator",
      "outputs": [],
      "stateMutability": "nonpayable",
      "type": "function"
    },
    {
      "inputs": [
        {
          "internalType": "address",
          "name": "project",
          "type": "address"
        },
        {
          "internalType": "uint256",
          "name": "stage",
          "type": "uint256"
        }
      ],
      "name": "createMilestoneApplication",
      "outputs": [],
      "stateMutability": "nonpayable",
      "type": "function"
    },
    {
      "inputs": [
        {
          "internalType": "string",
          "name": "governanceRights",
          "type": "string"
        },
        {
          "internalType": "string",
          "name": "usageRights",
          "type": "string"
        },
        {
          "internalType": "string",
          "name": "projectDescription",
          "type": "string"
        },
        {
          "internalType": "bytes32",
          "name": "projectName",
          "type": "bytes32"
        },
        {
          "internalType": "uint256",
          "name": "targetFundingAmount",
          "type": "uint256"
        },
        {
          "internalType": "uint256",
          "name": "minContributeAmount",
          "type": "uint256"
        },
        {
          "internalType": "address",
          "name": "token",
          "type": "address"
        },
        {
          "internalType": "uint256",
          "name": "fundingDDL",
          "type": "uint256"
        },
        {
          "internalType": "string[]",
          "name": "milestoneDescriptions",
          "type": "string[]"
        },
        {
          "internalType": "uint256[]",
          "name": "fundingAmounts",
          "type": "uint256[]"
        },
        {
          "internalType": "uint256[]",
          "name": "deadlines",
          "type": "uint256[]"
        }
      ],
      "name": "createProject",
      "outputs": [
        {
          "internalType": "address",
          "name": "",
          "type": "address"
        }
      ],
      "stateMutability": "nonpayable",
      "type": "function"
    },
    {
      "inputs": [
        {
          "internalType": "address",
          "name": "project",
          "type": "address"
        }
      ],
      "name": "getMilestoneApplication",
      "outputs": [
        {
          "components": [
            {
              "internalType": "address",
              "name": "project",
              "type": "address"
            },
            {
              "internalType": "uint256",
              "name": "stage",
              "type": "uint256"
            },
            {
              "internalType": "enum CommonGroundManager.ApplicationStatus",
              "name": "status",
              "type": "uint8"
            }
          ],
          "internalType": "struct CommonGroundManager.MilestoneApplication",
          "name": "",
          "type": "tuple"
        }
      ],
      "stateMutability": "view",
      "type": "function"
    },
    {
      "inputs": [],
      "name": "getProjectList",
      "outputs": [
        {
          "internalType": "address[]",
          "name": "",
          "type": "address[]"
        }
      ],
      "stateMutability": "view",
      "type": "function"
    },
    {
      "inputs": [
        {
          "internalType": "address",
          "name": "evaluator",
          "type": "address"
        }
      ],
      "name": "isEvaluator",
      "outputs": [
        {
          "internalType": "bool",
          "name": "",
          "type": "bool"
        }
      ],
      "stateMutability": "view",
      "type": "function"
    },
    {
      "inputs": [],
      "name": "owner",
      "outputs": [
        {
          "internalType": "address",
          "name": "",
          "type": "address"
        }
      ],
      "stateMutability": "view",
      "type": "function"
    },
    {
      "inputs": [],
      "name": "renounceOwnership",
      "outputs": [],
      "stateMutability": "nonpayable",
      "type": "function"
    },
    {
      "inputs": [
        {
          "internalType": "address",
          "name": "newOwner",
          "type": "address"
        }
      ],
      "name": "transferOwnership",
      "outputs": [],
      "stateMutability": "nonpayable",
      "type": "function"
    }
  ],
  "transactionHash": "0xd7fd84757106a3799370a681e7bb8cae694d1f2f2cd4d5ddc605646f7d08107b",
  "args": [],
  "numDeployments": 1,
  "solcInputHash": "a125ea7f0e50a4af105db4d58d5070dd",
  "bytecode": "0x6080806040523461007a5733156100645760008054336001600160a01b03198216811783556040519290916001600160a01b0316907f8be0079c531659141344cd1fd0a4f28419497f9722a3daafe3b4186f6b6457e09080a361299b90816100808239f35b631e4fbdf760e01b815260006004820152602490fd5b600080fdfe608060408181526004803610156200001657600080fd5b600092833560e01c9081631b561cf914620008c057508063307d66fc14620008995780634167f49b14620007875780635274cf5e14620006495780635880ef34146200053f578063715018a614620004de5780638da5cb5b14620004b4578063c6dc9495146200019d578063eb26e5f0146200012c5763f2fde38b146200009c57600080fd5b34620001285760203660031901126200012857620000b9620008fa565b90620000c462000a42565b6001600160a01b039182169283156200011257505082546001600160a01b0319811683178455167f8be0079c531659141344cd1fd0a4f28419497f9722a3daafe3b4186f6b6457e08380a380f35b51631e4fbdf760e01b8152908101849052602490fd5b8280fd5b5090346200012857602036600319011262000128576200014b620008fa565b916200015662000a42565b6200016360065462000a6f565b6006818155908552602091825282852080546001600160a01b0319166001600160a01b039095169485179055549284526005905282205580f35b50919034620004b057610160366003190112620004b05767ffffffffffffffff8335818111620004ac57620001d6903690860162000974565b93602435828111620004a857620001f1903690830162000974565b91604435818111620004a4576200020c903690840162000974565b956001600160a01b039360c4358581169190829003620004a05761010435918483116200049c57366023840112156200049c578286013592620002596200025385620009cc565b6200094d565b9a8b91858d526020809d016024819760051b83010191368311620004985760248101915b8383106200046a5750505050610124358781116200046657620002a49036908a01620009e5565b93610144358881116200046257620002c09036908b01620009e5565b96620002cb62000a42565b620002d860035462000a6f565b6003558b5199611e5890818c019a8c8c10908c11176200044f57508c8f936200032a8d9b9998979694620003479662000338959c9e9c8e62000b0e9039308d528c61018091829101528c019062000a95565b918a8303908b015262000a95565b90878203606089015262000a95565b91606435608087015260843560a087015260a43560c087015260e086015260e435610100860152848203610120860152518082528b808301818360051b85010198938d925b848410620004145750505050505084620003b49184620003c496970361014086015262000ad7565b9161016081840391015262000ad7565b039084f0801562000408571691600354815260018452818120836bffffffffffffffffffffffff60a01b825416179055816003549184815260028652205551908152f35b505051903d90823e3d90fd5b60019294969799506200043781929496999b601f198682030187528a5162000a95565b98019301930190928997959492938e9997996200038c565b634e487b7160e01b8f526041905260248efd5b8c80fd5b8b80fd5b8a83351162000494578f809162000488366024873587010162000974565b8152019201916200027d565b8e80fd5b8d80fd5b8880fd5b8780fd5b8580fd5b8480fd5b8380fd5b5080fd5b505034620004b05781600319360112620004b057905490516001600160a01b039091168152602090f35b83346200053c57806003193601126200053c57620004fb62000a42565b80546001600160a01b03198116825581906001600160a01b03167f8be0079c531659141344cd1fd0a4f28419497f9722a3daafe3b4186f6b6457e08280a380f35b80fd5b5091346200053c57806003193601126200053c5760035490620005666200025383620009cc565b8281526200057483620009cc565b6020828101969091601f1901368837600194855b81811115620005d2575050508451948186019282875251809352850195925b828110620005b55785870386f35b83516001600160a01b0316875295810195928101928401620005a7565b80865286845287862054969896949593946001600160a01b0316600019820182811162000636578751811015620006235760051b8701860152620006169062000a6f565b9795979493929462000588565b634e487b7160e01b865260328552602486fd5b634e487b7160e01b865260118552602486fd5b5091346200053c5760209182600319360112620004b0576200066a620008fa565b82826200067662000916565b82815286810183905201526001600160a01b039081168084526008855282842054156200072e578352600884528183205483526007845281832093620006bb62000916565b9482815416865260ff6002600183015492848901938452015416928487019360038110156200071b5784528451965116865251908501525191600383101562000708575060609350820152f35b634e487b7160e01b815260218552602490fd5b634e487b7160e01b875260218952602487fd5b825162461bcd60e51b8152808701869052602d60248201527f50726f6a65637420646f6573206e6f7420686176652061206d696c6573746f6e60448201526c329030b8383634b1b0ba34b7b760991b6064820152608490fd5b50903462000128578060031936011262000128576001600160a01b0380620007ae620008fa565b1692838552600260205282852054156200085d576002620007d160095462000a6f565b9283600955620007e062000916565b908682526020820190602435825286830195898752895260076020528689209251166bffffffffffffffffffffffff60a01b8354161782555160018201550191519060038210156200084a575060ff80198354169116179055600954918352600860205282205580f35b634e487b7160e01b865260219052602485fd5b606490602084519162461bcd60e51b83528201526016602482015275141c9bda9958dd08191bd95cc81b9bdd08195e1a5cdd60521b6044820152fd5b8284346200053c57806003193601126200053c575060035460065482519182526020820152f35b849084346200012857602036600319011262000128576020926001600160a01b03620008eb620008fa565b16815260058452205415158152f35b600435906001600160a01b03821682036200091157565b600080fd5b604051906060820182811067ffffffffffffffff8211176200093757604052565b634e487b7160e01b600052604160045260246000fd5b6040519190601f01601f1916820167ffffffffffffffff8111838210176200093757604052565b81601f82011215620009115780359067ffffffffffffffff82116200093757620009a8601f8301601f19166020016200094d565b92828452602083830101116200091157816000926020809301838601378301015290565b67ffffffffffffffff8111620009375760051b60200190565b9080601f83011215620009115781359062000a046200025383620009cc565b9182938184526020808095019260051b82010192831162000911578301905b82821062000a32575050505090565b8135815290830190830162000a23565b6000546001600160a01b0316330362000a5757565b60405163118cdaa760e01b8152336004820152602490fd5b600019811462000a7f5760010190565b634e487b7160e01b600052601160045260246000fd5b919082519283825260005b84811062000ac2575050826000602080949584010152601f8019910116010190565b60208183018101518483018201520162000aa0565b90815180825260208080930193019160005b82811062000af8575050505090565b83518552938101939281019260010162000ae956fe6101406040523462000c455762001e58803803806200001e8162000c8a565b92833961018082828101031262000c45576200003a8262000cb0565b60208301519092906001600160401b03811162000c4557620000629083830190830162000cc5565b60408201519092906001600160401b03811162000c45576200008a9082840190840162000cc5565b60608301519094906001600160401b03811162000c4557620000b29083850190850162000cc5565b90608084015160a08501519060c0860151620000d160e0880162000cb0565b92610100880151926101208901519760018060401b03891162000c4557808a01601f8a8c0101121562000c4557888a015162000117620001118262000d37565b62000c8a565b9960208b83815201908c602085820191838660051b910101011162000c45578c9160208083850101935b838660051b91010101831062000c4a57505050506101408a01516001600160401b03811162000c45576200017b90828c01908c0162000d4f565b6101608b0151909a906001600160401b03811162000c4557620001a2928201910162000d4f565b96331562000c2c5760008054336001600160a01b03198216811783556040519290916001600160a01b0316907f8be0079c531659141344cd1fd0a4f28419497f9722a3daafe3b4186f6b6457e09080a389518b51809114908162000c20575b501562000bce575060009b8c5b8d8c5111156200025857620002248e8d62000dbc565b51810180911162000242576200023b909d62000dac565b9c6200020e565b634e487b7160e01b600052601160045260246000fd5b60648d910362000b7d578051906001600160401b038211620006e55760015490600182811c9216801562000b72575b6020831014620006c45781601f84931162000b11575b50602090601f831160011462000a975760009262000a8b575b50508160011b916000199060031b1c1916176001555b8051906001600160401b038211620006e55760025490600182811c9216801562000a80575b6020831014620006c45781601f84931162000a1f575b50602090601f8311600114620009a55760009262000999575b50508160011b916000199060031b1c1916176002555b8051906001600160401b038211620006e55760035490600182811c921680156200098e575b6020831014620006c45781601f8493116200091c575b50602090601f83116001146200088d5760009262000881575b50508160011b916000199060031b1c1916176003555b60805260c05260e05260a0526001600160a01b0390811661010052166101205260005b82518110156200081c57620003d9818462000dbc565b51620003e6828662000dbc565b51620003f3838562000dbc565b51604051929091906001600160401b0360c0850190811190851117620006e55760c084016040528484526020840152604083015260608201526000608082015260405180602081011060018060401b03602083011117620006e557602081016040526000815260a08201526004549068010000000000000000821015620006e557600182018060045582101562000806576004600052602060002090805160068402830155602081015180519060018060401b038211620006e5576001600686028501015490600182811c92168015620007fb575b6020831014620006c45781601f8493116200079e575b50602090601f83116001146200071d5760009262000711575b50508160011b916000199060031b1c191617600160068502840101555b6040810151600684028301600281019190915560608201516003808301919091556080830151929160040190831015620006fb5760a09260ff80198354169116179055015180519060018060401b038211620006e55760056006850284010154600181811c91168015620006da575b6020821014620006c457601f811162000673575b50602090601f8311600114620005ee5782600593620005dc97969593600693600092620005e2575b50508160011b916000199060031b1c191617930201015562000dac565b620003c3565b015190508b80620005bf565b9060056006860285010160005260206000209160005b601f19851681106200065a575083620005dc97969593600693600193600597601f1981161062000640575b505050811b01930201015562000dac565b015160001960f88460031b161c191690558b80806200062f565b9192602060018192868501518155019401920162000604565b6005600686028501016000526020600020601f840160051c810160208510620006bc575b601f830160051c82018110620006af57505062000597565b6000815560010162000697565b508062000697565b634e487b7160e01b600052602260045260246000fd5b90607f169062000583565b634e487b7160e01b600052604160045260246000fd5b634e487b7160e01b600052602160045260246000fd5b015190508980620004f7565b92506001600687028601016000526020600020906000935b601f198416851062000782576001945083601f1981161062000768575b505050811b016001600685028401015562000514565b015160001960f88460031b161c1916905589808062000752565b8181015183556020948501946001909301929091019062000735565b9091506001600687028601016000526020600020601f840160051c810160208510620007f3575b90849392915b601f830160051c82018110620007e3575050620004de565b60008155859450600101620007cb565b5080620007c5565b91607f1691620004c8565b634e487b7160e01b600052603260045260246000fd5b6000600855600160ff196007541617600755604051611046908162000dd2823960805181610a08015260a05181505060c0518181816102530152610a2e015260e0518181816101490152610a54015261010051816101b1015261012051816105fd0152f35b015190508b806200038a565b6003600090815293507fc2575a0e9e593c00f959f8c92f12db2869c3395a3b0502d05e2516446f71f85b91905b601f198416851062000900576001945083601f19811610620008e6575b505050811b01600355620003a0565b015160001960f88460031b161c191690558b8080620008d7565b81810151835560209485019460019093019290910190620008ba565b60036000529091507fc2575a0e9e593c00f959f8c92f12db2869c3395a3b0502d05e2516446f71f85b601f840160051c81016020851062000986575b90849392915b601f830160051c820181106200097657505062000371565b600081558594506001016200095e565b508062000958565b91607f16916200035b565b015190508c8062000320565b6002600090815260008051602062001e188339815191529350601f198516905b81811062000a065750908460019594939210620009ec575b505050811b0160025562000336565b015160001960f88460031b161c191690558c8080620009dd565b92936020600181928786015181550195019301620009c5565b600260005290915060008051602062001e18833981519152601f840160051c81016020851062000a78575b90849392915b601f830160051c8201811062000a6857505062000307565b6000815585945060010162000a50565b508062000a4a565b91607f1691620002f1565b015190508d80620002b6565b6001600090815260008051602062001e388339815191529350601f198516905b81811062000af8575090846001959493921062000ade575b505050811b01600155620002cc565b015160001960f88460031b161c191690558d808062000acf565b9293602060018192878601518155019501930162000ab7565b600160005290915060008051602062001e38833981519152601f840160051c81016020851062000b6a575b90849392915b601f830160051c8201811062000b5a5750506200029d565b6000815585945060010162000b42565b508062000b3c565b91607f169162000287565b60405162461bcd60e51b815260206004820152602360248201527f52656c656173652070657263656e7461676573206d7573742073756d20746f2060448201526203130360ec1b6064820152608490fd5b62461bcd60e51b815260206004820152602760248201527f4d696c6573746f6e6520617272617973206d757374206861766520657175616c604482015266040d8cadccee8d60cb1b6064820152608490fd5b90508951143862000201565b604051631e4fbdf760e01b815260006004820152602490fd5b600080fd5b8251906001600160401b03821162000c4557828f91602080949162000c7a8293838c880191878901010162000cc5565b8152019501949291905062000141565b6040519190601f01601f191682016001600160401b03811183821017620006e557604052565b51906001600160a01b038216820362000c4557565b919080601f8401121562000c455782516001600160401b038111620006e55760209062000cfb601f8201601f1916830162000c8a565b9281845282828701011162000c455760005b81811062000d2357508260009394955001015290565b858101830151848201840152820162000d0d565b6001600160401b038111620006e55760051b60200190565b9080601f8301121562000c455781519062000d6e620001118362000d37565b9182938184526020808095019260051b82010192831162000c45578301905b82821062000d9c575050505090565b8151815290830190830162000d8d565b6000198114620002425760010190565b8051821015620008065760209160051b01019056fe60406080815260048036101561001457600080fd5b600091823560e01c8063185b6910146108dc578063564a8b99146108b1578063715018a6146108575780638da5cb5b1461082f578063a4086fa9146105c3578063a6129b811461038e578063b7ea4de614610349578063c1cbbca7146101135763f2fde38b1461008357600080fd5b3461010f57602036600319011261010f576001600160a01b0382358181169391929084900361010b576100b4610cca565b83156100f557505082546001600160a01b0319811683178455167f8be0079c531659141344cd1fd0a4f28419497f9722a3daafe3b4186f6b6457e08380a380f35b51631e4fbdf760e01b8152908101849052602490fd5b8480fd5b8280fd5b50919034610345576020928360031936011261010f5781359160ff6007541660058110156103325760016101479114610d81565b7f00000000000000000000000000000000000000000000000000000000000000008311156102d35781518581016323b872dd60e01b81523360248301523060448301528460648301526064825260a0820182811067ffffffffffffffff8211176102c057845290517f00000000000000000000000000000000000000000000000000000000000000006001600160a01b03169161021491879182919082865af13d156102b8573d906101f882610cae565b9161020587519384610c8c565b82523d888a84013e5b83610fad565b80519087821515928361029f575b50505061028b575050600561024d9394338652528320610243828254610dd9565b9055600654610dd9565b806006557f0000000000000000000000000000000000000000000000000000000000000000111561027b5780f35b600260ff19600754161760075580f35b6024925191635274afe760e01b8352820152fd5b6102af9350820181019101610dfc565b15388781610222565b60609061020e565b634e487b7160e01b875260418452602487fd5b84608492519162461bcd60e51b8352820152603560248201527f416d6f756e74206d7573742062652067726561746572207468616e206d696e696044820152741b5d5b4818dbdb9d1c9a589d5d1948185b5bdd5b9d605a1b6064820152fd5b634e487b7160e01b855260218252602485fd5b5080fd5b50903461010f57602036600319011261010f573591600583101561038b575061037461038792610efa565b9051918291602083526020830190610c1a565b0390f35b80fd5b503461010f57602090816003193601126105bf5782359167ffffffffffffffff918284116105bb57366023850112156105bb578584860135946103d086610cae565b956103dd84519788610c8c565b808752366024828401011161010f578060248693018389013786010152610402610cca565b60ff6007541660058110156105a857600261041d9114610d81565b60085490855482101561056657506104358591610cf6565b5001926001938460ff198254161790556005610452600854610cf6565b500194815193841161055357506104698554610d47565b601f811161050d575b5081601f84116001146104ac575092829391839287946104a1575b50501b916000199060031b1c191617905580f35b01519250388061048d565b919083601f1981168789528489209489905b888383106104f357505050106104da575b505050811b01905580f35b015160001960f88460031b161c191690553880806104cf565b8587015188559096019594850194879350908101906104be565b858752828720601f850160051c810191848610610549575b601f0160051c019085905b82811061053e575050610472565b888155018590610530565b9091508190610525565b634e487b7160e01b875260419052602486fd5b5162461bcd60e51b8152808601839052601f60248201527f4e6f206d6f7265206d696c6573746f6e657320746f206170706c7920666f72006044820152606490fd5b634e487b7160e01b875260218652602487fd5b8580fd5b8380fd5b503461010f576020806003193601126105bf57823590811515820361010b578251631b561cf960e01b8152338582015260249190818184817f00000000000000000000000000000000000000000000000000000000000000006001600160a01b03165afa9081156108255787916107f8575b50156107a85760ff6007541660058110156107965760020361075d5760085493855485101561071c5760ff8661066a87610cf6565b50015416600381101561070a576001036106ba575050506000146106a45750610694600854610cf6565b5001805460ff1916600217905580f35b6106ad90610cf6565b5001805460ff1916905580f35b6084928692602692519362461bcd60e51b85528401528201527f4d696c6573746f6e65206973206e6f7420696e2074686520636f72726563742060448201526573746174757360d01b6064820152fd5b634e487b7160e01b8852602187528388fd5b6064928692601e92519362461bcd60e51b85528401528201527f4e6f206d6f7265206d696c6573746f6e657320746f206576616c7561746500006044820152fd5b6015925060649493519362461bcd60e51b85528401528201527450726f6a656374206973206e6f742061637469766560581b6044820152fd5b634e487b7160e01b8752602186528287fd5b6026925060849493519362461bcd60e51b85528401528201527f4f6e6c79206576616c7561746f72732063616e2063616c6c20746869732066756044820152653731ba34b7b760d11b6064820152fd5b6108189150823d841161081e575b6108108183610c8c565b810190610dfc565b38610635565b503d610806565b85513d89823e3d90fd5b838234610345578160031936011261034557905490516001600160a01b039091168152602090f35b833461038b578060031936011261038b57610870610cca565b80546001600160a01b03198116825581906001600160a01b03167f8be0079c531659141344cd1fd0a4f28419497f9722a3daafe3b4186f6b6457e08280a380f35b50903461010f57602036600319011261010f573591600383101561038b575061037461038792610e84565b50903461010f578260031936011261010f576006546108ff60ff60075416610efa565b9061091b60ff6008549461091286610cf6565b50015416610e84565b91845194866001908782549161093083610d47565b80835292848116908115610bfb5750600114610b9f575b61095392500388610c8c565b81519088826002549161096583610d47565b80835292848116908115610b805750600114610b22575b61098892500383610c8c565b82519880916003549161099a83610d47565b808d5292828116908115610af85750600114610a9f575b50505061038796959492896109f8610a8a96946109d66109ea9d610a05960384610c8c565b83519c8d9c8d610140908181520190610c1a565b8c810360208e015290610c1a565b918a8303908b0152610c1a565b917f000000000000000000000000000000000000000000000000000000000000000060608901527f000000000000000000000000000000000000000000000000000000000000000060808901527f000000000000000000000000000000000000000000000000000000000000000060a089015260c088015286820360e0880152610c1a565b91610100850152838203610120850152610c1a565b9250600383527fc2575a0e9e593c00f959f8c92f12db2869c3395a3b0502d05e2516446f71f85b5b828410610ae057505050880160200182896109f86109b1565b805460208d8601810191909152909301928101610ac7565b60ff19166020808f019190915293151560051b8d0190930193508592508b91506109f890506109b1565b5060028b52908a90837f405787fa12a823e0f2b7631cc41b3ba8828b3321ca811111fa75cd3aa3bb5ace5b828410610b66575050509060206109889282010161097c565b602092945080548385890101520191019091838593610b4d565b6020925061098894915060ff191682840152151560051b82010161097c565b50828a52908990837fb10e2d527612073b26eecdfd717e6a320cf44b4afac2b0732d9fcbe2b7fa0cf65b828410610be25750505090602061095392820101610947565b6020929483858354920101520191019091838a93610bc9565b6020925061095394915060ff191682840152151560051b820101610947565b919082519283825260005b848110610c46575050826000602080949584010152601f8019910116010190565b602081830181015184830182015201610c25565b6040810190811067ffffffffffffffff821117610c7657604052565b634e487b7160e01b600052604160045260246000fd5b90601f8019910116810190811067ffffffffffffffff821117610c7657604052565b67ffffffffffffffff8111610c7657601f01601f191660200190565b6000546001600160a01b03163303610cde57565b60405163118cdaa760e01b8152336004820152602490fd5b600454811015610d31576006906004600052027f8a35acfbc15ff81a39ae7d344fd709f28e8600b4aa8c65c6b64bfe7fe36bd19b0190600090565b634e487b7160e01b600052603260045260246000fd5b90600182811c92168015610d77575b6020831014610d6157565b634e487b7160e01b600052602260045260246000fd5b91607f1691610d56565b15610d8857565b60405162461bcd60e51b8152602060048201526024808201527f50726f6a656374206973206e6f7420696e2074686520636f72726563742073746044820152636174757360e01b6064820152608490fd5b91908201809211610de657565b634e487b7160e01b600052601160045260246000fd5b90816020910312610e1457518015158103610e145790565b600080fd5b60405190610e2682610c5a565b600982526818dbdb5c1b195d195960ba1b6020830152565b60405190610e4b82610c5a565b600782526670656e64696e6760c81b6020830152565b60405190610e6e82610c5a565b60078252663ab735b737bbb760c91b6020830152565b6003811015610ee45780610e9e5750610e9b610e3e565b90565b60018103610ecd5750604051610eb381610c5a565b600a8152696576616c756174696e6760b01b602082015290565b600214610edc57610e9b610e61565b610e9b610e19565b634e487b7160e01b600052602160045260246000fd5b6005811015610ee45780610f115750610e9b610e3e565b60018103610f3d5750604051610f2681610c5a565b600781526666756e64696e6760c81b602082015290565b60028103610f685750604051610f5281610c5a565b600681526561637469766560d01b602082015290565b60038103610f795750610e9b610e19565b600414610f8857610e9b610e61565b604051610f9481610c5a565b600981526818d85b98d95b1b195960ba1b602082015290565b90610fd45750805115610fc257805190602001fd5b604051630a12f52160e11b8152600490fd5b81511580611007575b610fe5575090565b604051639996b31560e01b81526001600160a01b039091166004820152602490fd5b50803b15610fdd56fea264697066735822122070cf5d04faea8a72a9a240b64c6e9147dbd1f11dea1f145a5d606dba7b448e5864736f6c63430008140033405787fa12a823e0f2b7631cc41b3ba8828b3321ca811111fa75cd3aa3bb5aceb10e2d527612073b26eecdfd717e6a320cf44b4afac2b0732d9fcbe2b7fa0cf6a2646970667358221220f247f907da3301abc8aeb22ea59afb24fbb441221c6886739d04158d152ee87c64736f6c63430008140033",
  "devdoc": {
    "errors": {
      "OwnableInvalidOwner(address)": [
        {
          "details": "The owner is not a valid owner account. (eg. `address(0)`)"
        }
      ],
      "OwnableUnauthorizedAccount(address)": [
        {
          "details": "The caller account is not authorized to perform an operation."
        }
      ]
    },
    "kind": "dev",
    "methods": {
      "owner()": {
        "details": "Returns the address of the current owner."
      },
      "renounceOwnership()": {
        "details": "Leaves the contract without owner. It will not be possible to call `onlyOwner` functions. Can only be called by the current owner. NOTE: Renouncing ownership will leave the contract without an owner, thereby disabling any functionality that is only available to the owner."
      },
      "transferOwnership(address)": {
        "details": "Transfers ownership of the contract to a new account (`newOwner`). Can only be called by the current owner."
      }
    },
    "version": 1
  },
  "userdoc": {
    "kind": "user",
    "methods": {},
    "version": 1
  },
  "storageLayout": {
    "storage": [
      {
        "astId": 8,
        "contract": "contracts/CommonGroundManager.sol:CommonGroundManager",
        "label": "_owner",
        "offset": 0,
        "slot": "0",
        "type": "t_address"
      },
      {
        "astId": 863,
        "contract": "contracts/CommonGroundManager.sol:CommonGroundManager",
        "label": "_projects",
        "offset": 0,
        "slot": "1",
        "type": "t_mapping(t_uint256,t_address)"
      },
      {
        "astId": 867,
        "contract": "contracts/CommonGroundManager.sol:CommonGroundManager",
        "label": "_project_ids",
        "offset": 0,
        "slot": "2",
        "type": "t_mapping(t_address,t_uint256)"
      },
      {
        "astId": 869,
        "contract": "contracts/CommonGroundManager.sol:CommonGroundManager",
        "label": "_total_projects",
        "offset": 0,
        "slot": "3",
        "type": "t_uint256"
      },
      {
        "astId": 873,
        "contract": "contracts/CommonGroundManager.sol:CommonGroundManager",
        "label": "_evaluators",
        "offset": 0,
        "slot": "4",
        "type": "t_mapping(t_uint256,t_address)"
      },
      {
        "astId": 877,
        "contract": "contracts/CommonGroundManager.sol:CommonGroundManager",
        "label": "_evaluator_ids",
        "offset": 0,
        "slot": "5",
        "type": "t_mapping(t_address,t_uint256)"
      },
      {
        "astId": 879,
        "contract": "contracts/CommonGroundManager.sol:CommonGroundManager",
        "label": "_total_evaluators",
        "offset": 0,
        "slot": "6",
        "type": "t_uint256"
      },
      {
        "astId": 884,
        "contract": "contracts/CommonGroundManager.sol:CommonGroundManager",
        "label": "_milestone_applications",
        "offset": 0,
        "slot": "7",
        "type": "t_mapping(t_uint256,t_struct(MilestoneApplication)852_storage)"
      },
      {
        "astId": 888,
        "contract": "contracts/CommonGroundManager.sol:CommonGroundManager",
        "label": "_project_applications",
        "offset": 0,
        "slot": "8",
        "type": "t_mapping(t_address,t_uint256)"
      },
      {
        "astId": 890,
        "contract": "contracts/CommonGroundManager.sol:CommonGroundManager",
        "label": "_total_milestone_applications",
        "offset": 0,
        "slot": "9",
        "type": "t_uint256"
      }
    ],
    "types": {
      "t_address": {
        "encoding": "inplace",
        "label": "address",
        "numberOfBytes": "20"
      },
      "t_enum(ApplicationStatus)844": {
        "encoding": "inplace",
        "label": "enum CommonGroundManager.ApplicationStatus",
        "numberOfBytes": "1"
      },
      "t_mapping(t_address,t_uint256)": {
        "encoding": "mapping",
        "key": "t_address",
        "label": "mapping(address => uint256)",
        "numberOfBytes": "32",
        "value": "t_uint256"
      },
      "t_mapping(t_uint256,t_address)": {
        "encoding": "mapping",
        "key": "t_uint256",
        "label": "mapping(uint256 => address)",
        "numberOfBytes": "32",
        "value": "t_address"
      },
      "t_mapping(t_uint256,t_struct(MilestoneApplication)852_storage)": {
        "encoding": "mapping",
        "key": "t_uint256",
        "label": "mapping(uint256 => struct CommonGroundManager.MilestoneApplication)",
        "numberOfBytes": "32",
        "value": "t_struct(MilestoneApplication)852_storage"
      },
      "t_struct(MilestoneApplication)852_storage": {
        "encoding": "inplace",
        "label": "struct CommonGroundManager.MilestoneApplication",
        "members": [
          {
            "astId": 846,
            "contract": "contracts/CommonGroundManager.sol:CommonGroundManager",
            "label": "project",
            "offset": 0,
            "slot": "0",
            "type": "t_address"
          },
          {
            "astId": 848,
            "contract": "contracts/CommonGroundManager.sol:CommonGroundManager",
            "label": "stage",
            "offset": 0,
            "slot": "1",
            "type": "t_uint256"
          },
          {
            "astId": 851,
            "contract": "contracts/CommonGroundManager.sol:CommonGroundManager",
            "label": "status",
            "offset": 0,
            "slot": "2",
            "type": "t_enum(ApplicationStatus)844"
          }
        ],
        "numberOfBytes": "96"
      },
      "t_uint256": {
        "encoding": "inplace",
        "label": "uint256",
        "numberOfBytes": "32"
      }
    }
  }
}